{
  "_format": "hh-sol-artifact-1",
  "contractName": "MisajiTokenizedBallot",
  "sourceName": "contracts/TokenizedBallot.sol",
  "abi": [
    {
      "inputs": [
        {
          "internalType": "bytes32[]",
          "name": "proposalNames",
          "type": "bytes32[]"
        },
        {
          "internalType": "address",
          "name": "_tokenContract",
          "type": "address"
        }
      ],
      "stateMutability": "nonpayable",
      "type": "constructor"
    },
    {
      "inputs": [],
      "name": "getProposalsCount",
      "outputs": [
        {
          "internalType": "uint256",
          "name": "",
          "type": "uint256"
        }
      ],
      "stateMutability": "view",
      "type": "function"
    },
    {
      "inputs": [
        {
          "internalType": "uint256",
          "name": "",
          "type": "uint256"
        }
      ],
      "name": "proposals",
      "outputs": [
        {
          "internalType": "bytes32",
          "name": "name",
          "type": "bytes32"
        },
        {
          "internalType": "uint256",
          "name": "voteCount",
          "type": "uint256"
        }
      ],
      "stateMutability": "view",
      "type": "function"
    },
    {
      "inputs": [],
      "name": "tokenContract",
      "outputs": [
        {
          "internalType": "contract IVoteToken",
          "name": "",
          "type": "address"
        }
      ],
      "stateMutability": "view",
      "type": "function"
    },
    {
      "inputs": [
        {
          "internalType": "uint256",
          "name": "proposal",
          "type": "uint256"
        },
        {
          "internalType": "uint256",
          "name": "amount",
          "type": "uint256"
        }
      ],
      "name": "vote",
      "outputs": [],
      "stateMutability": "nonpayable",
      "type": "function"
    },
    {
      "inputs": [
        {
          "internalType": "address",
          "name": "account",
          "type": "address"
        }
      ],
      "name": "votingPower",
      "outputs": [
        {
          "internalType": "uint256",
          "name": "",
          "type": "uint256"
        }
      ],
      "stateMutability": "view",
      "type": "function"
    },
    {
      "inputs": [
        {
          "internalType": "address",
          "name": "",
          "type": "address"
        }
      ],
      "name": "votingPowerSpent",
      "outputs": [
        {
          "internalType": "uint256",
          "name": "",
          "type": "uint256"
        }
      ],
      "stateMutability": "view",
      "type": "function"
    },
    {
      "inputs": [],
      "name": "winner",
      "outputs": [
        {
          "components": [
            {
              "internalType": "bytes32",
              "name": "name",
              "type": "bytes32"
            },
            {
              "internalType": "uint256",
              "name": "voteCount",
              "type": "uint256"
            }
          ],
          "internalType": "struct MisajiTokenizedBallot.Proposal",
          "name": "winnerName_",
          "type": "tuple"
        }
      ],
      "stateMutability": "view",
      "type": "function"
    },
    {
      "inputs": [],
      "name": "winnerName",
      "outputs": [
        {
          "internalType": "bytes32",
          "name": "winnerName_",
          "type": "bytes32"
        }
      ],
      "stateMutability": "view",
      "type": "function"
    },
    {
      "inputs": [],
      "name": "winningProposal",
      "outputs": [
        {
          "internalType": "uint256",
          "name": "winningProposal_",
          "type": "uint256"
        }
      ],
      "stateMutability": "view",
      "type": "function"
    }
  ],
  "bytecode": "0x60806040523480156200001157600080fd5b5060405162000e8838038062000e88833981810160405281019062000037919062000340565b806000806101000a81548173ffffffffffffffffffffffffffffffffffffffff021916908373ffffffffffffffffffffffffffffffffffffffff16021790555060005b82518110156200010e5760016040518060400160405280858481518110620000a757620000a6620003a6565b5b602002602001015181526020016000815250908060018154018082558091505060019003906000526020600020906002020160009091909190915060008201518160000155602082015181600101555050808062000105906200040e565b9150506200007a565b5050506200045b565b6000604051905090565b600080fd5b600080fd5b600080fd5b6000601f19601f8301169050919050565b7f4e487b7100000000000000000000000000000000000000000000000000000000600052604160045260246000fd5b6200017b8262000130565b810181811067ffffffffffffffff821117156200019d576200019c62000141565b5b80604052505050565b6000620001b262000117565b9050620001c0828262000170565b919050565b600067ffffffffffffffff821115620001e357620001e262000141565b5b602082029050602081019050919050565b600080fd5b6000819050919050565b6200020e81620001f9565b81146200021a57600080fd5b50565b6000815190506200022e8162000203565b92915050565b60006200024b6200024584620001c5565b620001a6565b90508083825260208201905060208402830185811115620002715762000270620001f4565b5b835b818110156200029e57806200028988826200021d565b84526020840193505060208101905062000273565b5050509392505050565b600082601f830112620002c057620002bf6200012b565b5b8151620002d284826020860162000234565b91505092915050565b600073ffffffffffffffffffffffffffffffffffffffff82169050919050565b60006200030882620002db565b9050919050565b6200031a81620002fb565b81146200032657600080fd5b50565b6000815190506200033a816200030f565b92915050565b600080604083850312156200035a576200035962000121565b5b600083015167ffffffffffffffff8111156200037b576200037a62000126565b5b6200038985828601620002a8565b92505060206200039c8582860162000329565b9150509250929050565b7f4e487b7100000000000000000000000000000000000000000000000000000000600052603260045260246000fd5b7f4e487b7100000000000000000000000000000000000000000000000000000000600052601160045260246000fd5b6000819050919050565b60006200041b8262000404565b91507fffffffffffffffffffffffffffffffffffffffffffffffffffffffffffffffff820362000450576200044f620003d5565b5b600182019050919050565b610a1d806200046b6000396000f3fe608060405234801561001057600080fd5b50600436106100935760003560e01c8063a720035111610066578063a720035114610123578063b384abef14610153578063c07473f61461016f578063dfbf53ae1461019f578063e2ba53f0146101bd57610093565b8063013cf08b1461009857806355a373d6146100c9578063609ff1bd146100e757806398e527d314610105575b600080fd5b6100b260048036038101906100ad919061058f565b6101db565b6040516100c09291906105e4565b60405180910390f35b6100d161020f565b6040516100de919061068c565b60405180910390f35b6100ef610233565b6040516100fc91906106a7565b60405180910390f35b61010d6102bb565b60405161011a91906106a7565b60405180910390f35b61013d60048036038101906101389190610700565b6102c8565b60405161014a91906106a7565b60405180910390f35b61016d6004803603810190610168919061072d565b6102e0565b005b61018960048036038101906101849190610700565b6103c1565b60405161019691906106a7565b60405180910390f35b6101a76104ae565b6040516101b491906107ba565b60405180910390f35b6101c5610503565b6040516101d291906107d5565b60405180910390f35b600181815481106101eb57600080fd5b90600052602060002090600202016000915090508060000154908060010154905082565b60008054906101000a900473ffffffffffffffffffffffffffffffffffffffff1681565b6000806000905060005b6001805490508110156102b657816001828154811061025f5761025e6107f0565b5b90600052602060002090600202016001015411156102a3576001818154811061028b5761028a6107f0565b5b90600052602060002090600202016001015491508092505b80806102ae9061084e565b91505061023d565b505090565b6000600180549050905090565b60026020528060005260406000206000915090505481565b806102ea336103c1565b101561032b576040517f08c379a0000000000000000000000000000000000000000000000000000000008152600401610322906108f3565b60405180910390fd5b80600260003373ffffffffffffffffffffffffffffffffffffffff1673ffffffffffffffffffffffffffffffffffffffff168152602001908152602001600020600082825461037a9190610913565b925050819055508060018381548110610396576103956107f0565b5b906000526020600020906002020160010160008282546103b69190610913565b925050819055505050565b6000600260008373ffffffffffffffffffffffffffffffffffffffff1673ffffffffffffffffffffffffffffffffffffffff1681526020019081526020016000205460008054906101000a900473ffffffffffffffffffffffffffffffffffffffff1673ffffffffffffffffffffffffffffffffffffffff16639ab24eb0846040518263ffffffff1660e01b815260040161045c9190610956565b602060405180830381865afa158015610479573d6000803e3d6000fd5b505050506040513d601f19601f8201168201806040525081019061049d9190610986565b6104a791906109b3565b9050919050565b6104b6610537565b60016104c0610233565b815481106104d1576104d06107f0565b5b906000526020600020906002020160405180604001604052908160008201548152602001600182015481525050905090565b6000600161050f610233565b815481106105205761051f6107f0565b5b906000526020600020906002020160000154905090565b604051806040016040528060008019168152602001600081525090565b600080fd5b6000819050919050565b61056c81610559565b811461057757600080fd5b50565b60008135905061058981610563565b92915050565b6000602082840312156105a5576105a4610554565b5b60006105b38482850161057a565b91505092915050565b6000819050919050565b6105cf816105bc565b82525050565b6105de81610559565b82525050565b60006040820190506105f960008301856105c6565b61060660208301846105d5565b9392505050565b600073ffffffffffffffffffffffffffffffffffffffff82169050919050565b6000819050919050565b600061065261064d6106488461060d565b61062d565b61060d565b9050919050565b600061066482610637565b9050919050565b600061067682610659565b9050919050565b6106868161066b565b82525050565b60006020820190506106a1600083018461067d565b92915050565b60006020820190506106bc60008301846105d5565b92915050565b60006106cd8261060d565b9050919050565b6106dd816106c2565b81146106e857600080fd5b50565b6000813590506106fa816106d4565b92915050565b60006020828403121561071657610715610554565b5b6000610724848285016106eb565b91505092915050565b6000806040838503121561074457610743610554565b5b60006107528582860161057a565b92505060206107638582860161057a565b9150509250929050565b610776816105bc565b82525050565b61078581610559565b82525050565b6040820160008201516107a1600085018261076d565b5060208201516107b4602085018261077c565b50505050565b60006040820190506107cf600083018461078b565b92915050565b60006020820190506107ea60008301846105c6565b92915050565b7f4e487b7100000000000000000000000000000000000000000000000000000000600052603260045260246000fd5b7f4e487b7100000000000000000000000000000000000000000000000000000000600052601160045260246000fd5b600061085982610559565b91507fffffffffffffffffffffffffffffffffffffffffffffffffffffffffffffffff820361088b5761088a61081f565b5b600182019050919050565b600082825260208201905092915050565b7f547279696e6720746f20766f7465206d6f7265207468616e20616c6c6f776564600082015250565b60006108dd602083610896565b91506108e8826108a7565b602082019050919050565b6000602082019050818103600083015261090c816108d0565b9050919050565b600061091e82610559565b915061092983610559565b92508282019050808211156109415761094061081f565b5b92915050565b610950816106c2565b82525050565b600060208201905061096b6000830184610947565b92915050565b60008151905061098081610563565b92915050565b60006020828403121561099c5761099b610554565b5b60006109aa84828501610971565b91505092915050565b60006109be82610559565b91506109c983610559565b92508282039050818111156109e1576109e061081f565b5b9291505056fea264697066735822122032bfbdbbd8d1602444f23b8bcf2a5f533a2c10abe2933869b2e70b5de95421c564736f6c63430008120033",
  "linkReferences": {},
  "deployedLinkReferences": {}
}